:100000000C9435000C945D000C945D000C945D0024
:100010000C945D000C945D000C945D000C945D00EC
:100020000C945D000C945D000C945D000C945D00DC
:100030000C945D000C945D000C945D000C945D00CC
:100040000C9422080C945D000C94430A0C94750ADD
:100050000C945D000C945D000C945D000C945D00AC
:100060000C945D000C945D00A50A11241FBECFEF17
:10007000D8E0DEBFCDBF11E0A0E0B1E0ECECF7E1ED
:1000800002C005900D92A83DB107D9F722E0A8ED76
:10009000B1E001C01D92AD3BB207E1F710E0CAE646
:1000A000D0E004C02297FE010E94E00BC836D107C1
:1000B000C9F70E94E90A0C94E40B0C9400000000BC
:1000C0000000000000000000000000000000000030
:1000D0000000000000000000000000000000000020
:1000E0000000000000000000000000000000000010
:1000F0000000000000000000000000000000000000
:100100004EE003C04CE001C04AE02F923F924F9274
:100110005F926F927F928F929F92AF92BF92CF9297
:10012000DF92EF92FF920F931F93CF93DF938F9302
:100130009F93DB01FC01842F43954295A40FB11DD1
:10014000E89481909190A190B190C190D190E1906C
:10015000F1900191119121913191419151916191D0
:1001600071919BE10E9070250E9060250E905025A8
:100170000E9040250E9030250E9020250E901025D3
:100180000E9000250E90F0240E90E0240E90D024C6
:100190000E90C0240E90B0240E90A0240E909024B7
:1001A0000E9080248A9509F46894F9E0E82D8490F3
:1001B000EC2DC490E02F0491E42F4491E52F24907E
:1001C000E12F5491ED2D1491E92DD490922CE62F2E
:1001D0002490E22F3490EE2D6491EA2D2491E22CAC
:1001E000A32CEB2D2490EF2DB490E32FF490E72F68
:1001F0003491722D0E9070250E9060250E90502532
:100200000E9040250E9030250E9020250E90102542
:100210000E9000250E90F0240E90E0240E90D02435
:100220000E90C0240E90B0240E90A0240E90902426
:100230000E9080242EF5FF91EF9181929192A192E0
:10024000B192C192D192E192F192019311932193D3
:1002500031934193519361937193DF91CF911F91AA
:100260000F91FF90EF90DF90CF90BF90AF909F9055
:100270008F907F906F905F904F903F902F90089558
:10028000F4E02B2C2A24382C3924E22DE325449049
:10029000F5E0EA2DE82554905424EB2DE92504904F
:1002A0004024682C6B24660C08F469266424B62468
:1002B0006A2C6924660C08F4692664249624220CAE
:1002C00008F429262524A224330C08F439263524E1
:1002D0008324F4E02F2C2E243C2C3D24E22DE32516
:1002E0004490F5E0EE2DEC2554905424EF2DED25AF
:1002F000049040246C2C6F24660C08F46926642456
:10030000F6246E2C6D24660C08F469266424D62429
:10031000220C08F429262524E224330C08F439267B
:100320003524C324F4E0232E2226302E3126E22D5C
:10033000E3254490F5E0E22FE02754905424E32F86
:10034000E12704904024602E6326660C08F4692699
:1003500064243625622E6126660C08F4692664241E
:100360001625220C08F4292625242225330C08F40E
:10037000392635240325F4E0272E2626342E35266B
:10038000E22DE3254490F5E0E62FE4275490542431
:10039000E72FE52704904024642E6726660C08F4B6
:1003A000692664247625662E6526660C08F469267F
:1003B00064245625220C08F4292625246225330CB2
:1003C00008F4392635244325EDCE00000000000056
:1003D000000000000000000000000000000000001D
:1003E000000000000000000000000000000000000D
:1003F00000000000000000000000000000000000FD
:100400000009121B242D363F48415A536C657E77F4
:100410009099828BB4BDA6AFD8D1CAC3FCF5EEE7E4
:100420003B3229201F160D04737A6168575E454CD4
:10043000ABA2B9B08F869D94E3EAF1F8C7CED5DCC4
:10044000767F646D525B40493E372C251A130801B4
:10045000E6EFF4FDC2CBD0D9AEA7BCB58A839891A4
:100460004D445F5669607B72050C171E2128333A94
:10047000DDD4CFC6F9F0EBE2959C878EB1B8A3AA84
:10048000ECE5FEF7C8C1DAD3A4ADB6BF8089929B74
:100490007C756E6758514A43343D262F1019020B64
:1004A000D7DEC5CCF3FAE1E89F968D84BBB2A9A054
:1004B000474E555C636A71780F061D142B22393044
:1004C0009A938881BEB7ACA5D2DBC0C9F6FFE4ED34
:1004D0000A0318112E273C35424B5059666F747D24
:1004E000A1A8B3BA858C979EE9E0FBF2CDC4DFD614
:1004F0003138232A151C070E79706B625D544F4604
:100500000004080C1014181C2024282C3034383C0B
:100510004044484C5054585C6064686C7074787CFB
:100520008084888C9094989CA0A4A8ACB0B4B8BCEB
:10053000C0C4C8CCD0D4D8DCE0E4E8ECF0F4F8FCDB
:100540001B1F13170B0F03073B3F33372B2F23279B
:100550005B5F53574B4F43477B7F73776B6F63678B
:100560009B9F93978B8F8387BBBFB3B7ABAFA3A77B
:10057000DBDFD3D7CBCFC3C7FBFFF3F7EBEFE3E76B
:1005800036323E3A26222E2A16121E1A06020E0A6B
:1005900076727E7A66626E6A56525E5A46424E4A5B
:1005A000B6B2BEBAA6A2AEAA96929E9A86828E8A4B
:1005B000F6F2FEFAE6E2EEEAD6D2DEDAC6C2CECA3B
:1005C0002D2925213D3935310D0905011D1915113B
:1005D0006D6965617D7975714D4945415D5955512B
:1005E000ADA9A5A1BDB9B5B18D8985819D9995911B
:1005F000EDE9E5E1FDF9F5F1CDC9C5C1DDD9D5D10B
:100600004EE003C04CE001C04AE02F923F924F926F
:100610005F926F927F928F929F92AF92BF92CF9292
:10062000DF92EF92FF920F931F93CF93DF938F93FD
:100630009F93DB01FC01842FE89481909190A1901D
:10064000B190C190D190E190F190019111912191DF
:10065000319141915191619171919BE1FBE00D903C
:1006600080240D9090240D90A0240D90B0240D9026
:10067000C0240D90D0240D90E0240D90F0240D9016
:1006800000250D9010250D9020250D9030250D9002
:1006900040250D9050250D9060250D9070252EF56C
:1006A000FF91EF9181929192A192B192C192D192D8
:1006B000E192F192019311932193319341935193DC
:1006C00061937193DF91CF911F910F91FF90EF9004
:1006D000DF90CF90BF90AF909F908F907F906F9062
:1006E0005F904F903F902F9008958A9509F46894F9
:1006F000E82D8490EC2DC490E02F0491E42F4491D8
:10070000E92D2490ED2D9490E12FD490E52F1491B4
:10071000522DEA2D2490EE2D3490E22FA490E62F56
:10072000E490222D632DEB2D2490E72FB490E32F3E
:100730007491EF2D3491F22C0EF491CF0A2C0B24EE
:10074000402C282C89240824880C08F4892680242D
:100750008224392C3A24330C08F43926302493248B
:10076000440C08F449264024A4242B24220C08F429
:1007700029262024B2240E2C0F24402C2C2CCD24EE
:100780000C24CC0C08F4C926C024C2243D2C3E24E1
:10079000330C08F439263024D324440C08F44926B9
:1007A0004024E4242F24220C08F429262024F224B7
:1007B000022E0326402C202E01270026000F08F4CD
:1007C000092700250225312E3226330C08F439265C
:1007D00030241325440C08F44926402424252326DC
:1007E000220C08F4292620243225062E0726402C28
:1007F000242E45270426440F08F449274025422586
:10080000352E3626330C08F4392630245325440C73
:1008100008F44926402464252726220C08F42926BA
:10082000202472251CCF0000000000000000000002
:1008300000000000000000000000000000000000B8
:1008400000000000000000000000000000000000A8
:100850000000000000000000000000000000000098
:100860000000000000000000000000000000000088
:100870000000000000000000000000000000000078
:100880000000000000000000000000000000000068
:100890000000000000000000000000000000000058
:1008A0000000000000000000000000000000000048
:1008B0000000000000000000000000000000000038
:1008C0000000000000000000000000000000000028
:1008D0000000000000000000000000000000000018
:1008E0000000000000000000000000000000000008
:1008F00000000000000000000000000000000000F8
:1009000052096AD53036A538BF40A39E81F3D7FB84
:100910007CE339829B2FFF87348E4344C4DEE9CBCE
:10092000547B9432A6C2233DEE4C950B42FAC34E43
:10093000082EA16628D924B2765BA2496D8BD125F9
:1009400072F8F66486689816D4A45CCC5D65B6929D
:100950006C704850FDEDB9DA5E154657A78D9D8441
:1009600090D8AB008CBCD30AF7E45805B8B3450661
:10097000D02C1E8FCA3F0F02C1AFBD0301138A6B7B
:100980003A9111414F67DCEA97F2CFCEF0B4E673AB
:1009900096AC7422E7AD3585E2F937E81C75DF6E59
:1009A00047F11A711D29C5896FB7620EAA18BE1BBF
:1009B000FC563E4BC6D279209ADBC0FE78CD5AF465
:1009C0001FDDA8338807C731B11210592780EC5FAB
:1009D00060517FA919B54A0D2DE57A9F93C99CEF07
:1009E000A0E03B4DAE2AF5B0C8EBBB3C8353996108
:1009F000172B047EBA77D626E169146355210C7D46
:100A0000AB0171E060E007C0AB0170E060EC03C0D7
:100A1000AB01772760E8EF92FF920F931F93CF937C
:100A2000DF93FA01EA01DC01769567956695669594
:100A3000262F0D9001922A95E1F76695669563FB46
:100A4000362F762F795F770F770FDF011497262FD8
:100A5000E0E0FBE07F0111E04D915D918D919D9172
:100A60003217B1F05EF5022F0770043039F5F70147
:100A7000E40FF11D4491F701E50FF11D5491F701C9
:100A8000E80FF11D8491F701E90FF11D949116C053
:100A9000360FF701E40FF11D0491F701E50FF11D89
:100AA0004491F701E80FF11D5491F701E90FF11D91
:100AB0008491902F4127110F08F41BE1FD0109904B
:100AC00004260192099005260192099008260192B8
:100AD0000990092601922395271709F0BDCFE894C4
:100AE000DF91CF911F910F91FF90EF90089500003B
:100AF00000000000000000000000000000000000F6
:100B0000637C777BF26B6FC53001672BFED7AB76CA
:100B1000CA82C97DFA5947F0ADD4A2AF9CA472C075
:100B2000B7FD9326363FF7CC34A5E5F171D83115E2
:100B300004C723C31896059A071280E2EB27B27503
:100B400009832C1A1B6E5AA0523BD6B329E32F847B
:100B500053D100ED20FCB15B6ACBBE394A4C58CF73
:100B6000D0EFAAFB434D338545F9027F503C9FA847
:100B700051A3408F929D38F5BCB6DA2110FFF3D215
:100B8000CD0C13EC5F974417C4A77E3D645D1973C9
:100B900060814FDC222A908846EEB814DE5E0BDBC3
:100BA000E0323A0A4906245CC2D3AC629195E479FA
:100BB000E7C8376D8DD54EA96C56F4EA657AAE0854
:100BC000BA78252E1CA6B4C6E8DD741F4BBD8B8AEF
:100BD000703EB5664803F60E613557B986C11D9E55
:100BE000E1F8981169D98E949B1E87E9CE5528DFCC
:100BF0008CA1890DBFE6426841992D0FB054BB16F8
:100C000040ED57E060E070E080EE91E00E948907DF
:100C100020E835E240E050E060E272E080EE91E0F2
:100C20000E949C0780EE91E00E94860766E171E0D9
:100C300080911102909112020E94360B6AE070E0DE
:100C400080E090E00E949B0841E060E080EE91E04F
:100C50000E94070826E040E855E260E070E080E28C
:100C600092E00C94E109CF92DF92EF92FF920F9302
:100C70001F93CF93DF93CDB7DEB7A1970FB6F8944C
:100C8000DEBF0FBECDBF0E946C08672B682B692B9F
:100C900041F40E946C08623071058105910508F4E9
:100CA00078C080EE91E00E945C076093D801709359
:100CB000D9018093DA019093DB010091DC0110915E
:100CC000DD012091DE013091DF016017710782079D
:100CD000930740F46093DC017093DD018093DE01A3
:100CE0009093DF010091DC011091DD012091DE0184
:100CF0003091DF016B017C01C01AD10AE20AF30ACC
:100D0000970186010A3F11052105310508F441C00C
:100D10006093DC017093DD018093DE019093DF012D
:100D200080EE91E00E94860768E271E080911102F6
:100D3000909112020E94360B60E371E080911102E3
:100D4000909112020E94360B0E946C08AB01BC010C
:100D50002AE030E080911102909112020E94A70BCC
:100D600062E371E080911102909112020E94360BB1
:100D700065E070E080E090E00E949B086AE070E02F
:100D800080E090E00E949B0861E080EE91E00E948C
:100D9000C90780E1E6E0F1E0DE01529601900D9294
:100DA0008A95E1F781E1E1E5F1E0DE01119601903C
:100DB0000D928A95E1F7BE016F5F7F4FCE0142969B
:100DC0000E9412076BE371E080E292E00E94360B12
:100DD000BE016F5F7F4F80E292E00E943C0BBE013C
:100DE0006F5F7F4FCE0142960E94370766E471E045
:100DF00080E292E00E94360BBE016F5F7F4F80E27F
:100E000092E00E943C0BA1960FB6F894DEBF0FBE95
:100E1000CDBFDF91CF911F910F91FF90EF90DF90A9
:100E2000CF9008950F931F93CF93DF93CDB7DEB785
:100E3000C05BD1090FB6F894DEBF0FBECDBF8B01EA
:100E4000BE016F5F7F4F0E940805BE016F5F7F4F3D
:100E5000C8010E940403C055DF4F0FB6F894DEBFEF
:100E60000FBECDBFDF91CF911F910F9108950F93CA
:100E70001F93CF93DF93CDB7DEB7C05BD1090FB619
:100E8000F894DEBF0FBECDBF8B01BE016F5F7F4FF9
:100E90000E940805BE016F5F7F4FC8010E94840059
:100EA000C055DF4F0FB6F894DEBF0FBECDBFDF9148
:100EB000CF911F910F9108950C946C080F931F937D
:100EC000CF93DF93EC01662359F00E946C0869838D
:100ED0007A838B839C83DF91CF911F910F9108952B
:100EE0000E946C0809811A812B813C81601B710B67
:100EF000820B930B623371058105910530F763E036
:100F000070E080E090E00E949B08EACF60E00C94E3
:100F10005E07FC0113AA14AA15AA16AA118212824E
:100F200013821482411551056105710521F0CB0131
:100F3000BA010C949B080895FB01BA01A901DC01D8
:100F4000D296FC93EE93D19726E0CF010C94E10961
:100F50001F93CF93DF93EC01162F62E671E089A90E
:100F60009AA90E94360B4AE050E0612F89A99AA9FC
:100F70000E94B40B69E671E089A99AA90E94360B18
:100F800062E370E080E090E0DF91CF911F910C94DC
:100F90009B081F93CF93DF93EC01162F8D8188233D
:100FA00089F189A99AA9DC01ED91FC910480F58170
:100FB000E02D0995892BA9F307C02637310519F1D2
:100FC0002835310509F41D8289A99AA9DC01ED9122
:100FD000FC910480F581E02D09951816190694F40A
:100FE00089A99AA9DC01ED91FC910680F781E02D99
:100FF00009959C01332723363105F9F6612FCE017F
:101000000E94A80783E6DF91CF911F9108950F9367
:101010001F93CF93DF931F92CDB7DEB78C0166236A
:1010200049F081E0F801858360E0C80149830E94AE
:10103000C9074981F80145830F90DF91CF911F9136
:101040000F9108951F920F920FB60F9211242F93B4
:101050003F938F939F93AF93BF938091180290918A
:101060001902A0911A02B0911B023091170223E0DD
:10107000230F2D3720F40196A11DB11D05C026E8D0
:10108000230F0296A11DB11D209317028093180211
:1010900090931902A0931A02B0931B0280911C0234
:1010A00090911D02A0911E02B0911F020196A11DF8
:1010B000B11D80931C0290931D02A0931E02B09359
:1010C0001F02BF91AF919F918F913F912F910F90F0
:1010D0000FBE0F901F9018952FB7F89460911802CB
:1010E0007091190280911A0290911B022FBF0895EE
:1010F0003FB7F89480911C0290911D02A0911E02AE
:10110000B0911F0226B5A89B05C02F3F19F001968C
:10111000A11DB11D3FBF6627782F892F9A2F620F1F
:10112000711D811D911D42E0660F771F881F991F59
:101130004A95D1F70895CF92DF92EF92FF92CF9325
:10114000DF936B017C010E947808EB01C114D1048C
:10115000E104F10489F00E94BB0B0E9478086C1B2B
:101160007D0B683E734090F381E0C81AD108E10816
:10117000F108C851DC4FEACFDF91CF91FF90EF909B
:10118000DF90CF900895789484B5826084BD84B553
:10119000816084BD85B5826085BD85B5816085BD72
:1011A000EEE6F0E0808181608083E1E8F0E010828B
:1011B000808182608083808181608083E0E8F0E0CC
:1011C000808181608083E1EBF0E0808184608083B6
:1011D000E0EBF0E0808181608083EAE7F0E08081ED
:1011E000846080838081826080838081816080834D
:1011F0008081806880831092C1000895FC01818DF8
:10120000228D90E0805C9F4F821B91098F739927FC
:101210000895FC01918D828D981731F0828DE80F31
:10122000F11D858D90E008958FEF9FEF0895FC01EB
:10123000918D828D981761F0828DDF01A80FB11D0D
:101240005D968C91928D9F5F9F73928F90E0089531
:101250008FEF9FEF08958BE99AE0892B49F080E0AA
:1012600090E0892B29F00E949B0A81110C940000C8
:101270000895FC01848DDF01A80FB11DA35ABF4F53
:101280002C91848D90E001968F739927848FA68985
:10129000B7892C93A089B1898C9180648C93938DAC
:1012A000848D981306C00288F389E02D80818F7D9C
:1012B00080830895CF93DF93EC01888D8823C9F054
:1012C000EA89FB89808185FD05C0A889B9898C914F
:1012D00086FD0FC00FB607FCF5CF808185FFF2CFEA
:1012E000A889B9898C9185FFEDCFCE010E9439097B
:1012F000E7CFDF91CF910895CF92DF92FF920F93C6
:101300001F93CF93DF931F92CDB7DEB76C0181E0BF
:10131000D60158968C9358975B969C915B975C96F8
:101320008C915C97981307C05096ED91FC91519762
:10133000808185FD2EC0F601038D10E00F5F1F4FE9
:101340000F731127F02EF601848DF81211C00FB61D
:1013500007FCF9CFD6015096ED91FC915197808111
:1013600085FFF1CFC60169830E9439096981EBCFFE
:10137000838DE80FF11DE35AFF4F6083D6015B9622
:101380000C935B975296ED91FC915397808180620C
:101390000CC0D6015696ED91FC91579760835096FC
:1013A000ED91FC91519780818064808381E090E091
:1013B0000F90DF91CF911F910F91FF90DF90CF9011
:1013C0000895BF92CF92DF92EF92FF92CF93DF9377
:1013D000EC016A017B01B22EE889F98982E0808301
:1013E000411581EE580761057105A1F060E079E0D3
:1013F0008DE390E0A70196010E94BC0B21503109BA
:10140000410951095695479537952795211580E152
:10141000380798F0E889F989108260E874E88EE16D
:1014200090E0A70196010E94BC0B215031094109AF
:1014300051095695479537952795EC85FD8530835D
:10144000EE85FF852083188EEC89FD89B082EA89BC
:10145000FB89808180618083EA89FB898081886043
:101460008083EA89FB89808180688083EA89FB899F
:1014700080818F7D8083DF91CF91FF90EF90DF900F
:10148000CF90BF9008951F920F920FB60F92112424
:101490002F938F939F93EF93FF93E0913002F091FE
:1014A00031028081E0913602F091370282FD12C054
:1014B0009081809139028F5F8F7320913A02821759
:1014C00051F0E0913902F0E0E05EFD4F958F80939E
:1014D000390201C08081FF91EF919F918F912F91EF
:1014E0000F900FBE0F901F9018951F920F920FB67E
:1014F0000F9211242F933F934F935F936F937F939A
:101500008F939F93AF93BF93EF93FF9380E292E00B
:101510000E943909FF91EF91BF91AF919F918F91F7
:101520007F916F915F914F913F912F910F900FBEDF
:101530000F901F90189580E292E00E94FE0821E033
:10154000892B09F420E0822F089510922302109233
:10155000220288EE93E0A0E0B0E080932402909312
:101560002502A0932602B09327028EEB91E0909380
:1015700021028093200285EC90E090932D028093CD
:101580002C0284EC90E090932F0280932E0280EC4A
:1015900090E0909331028093300281EC90E0909340
:1015A00033028093320282EC90E090933502809374
:1015B000340286EC90E090933702809336021092CA
:1015C000390210923A0210923B0210923C020895A6
:1015D00008950E94C3080E94E80A0E940006CBE218
:1015E000D9E00E9433062097E1F30E942B09F9CF3E
:1015F000CF92DF92EF92FF920F931F93CF93DF93DF
:101600007C016A01EB0100E010E00C151D0571F092
:101610006991D701ED91FC910190F081E02DC70116
:101620000995892B19F00F5F1F4FEFCFC801DF918C
:10163000CF911F910F91FF90EF90DF90CF90089581
:101640006115710581F0DB010D900020E9F7AD0116
:1016500041505109461B570BDC01ED91FC91028072
:10166000F381E02D099480E090E008950C94200B24
:101670006FE671E00C94200B0F931F93CF93DF93D1
:10168000EC010E94200B8C01CE010E94380B800FD0
:10169000911FDF91CF911F910F9108958F929F928B
:1016A000AF92BF92CF92DF92EF92FF920F931F9370
:1016B000CF93DF93CDB7DEB7A1970FB6F894DEBF17
:1016C0000FBECDBF7C01C42EE52FCB01D22E19A2B7
:1016D00021E02D1510F02AE0D22E8E010F5D1F4F54
:1016E0008D2C912CA12CB12C6C2D7E2FA501940159
:1016F0000E94BC0B8C2DD29E80191124015011091F
:101700008A3014F4805D01C0895CF8018083211562
:1017100031054105510521F0C22EE32FCA01E4CF66
:10172000B801C7010E94200BA1960FB6F894DEBF46
:101730000FBECDBFDF91CF911F910F91FF90EF9022
:10174000DF90CF90BF90AF909F908F90089521151C
:10175000310541F4DC01ED91FC910190F081E02D27
:10176000642F09940C944E0B9A01462F50E060E0D0
:1017700070E00C94A70B0895A1E21A2EAA1BBB1BC4
:10178000FD010DC0AA1FBB1FEE1FFF1FA217B3074D
:10179000E407F50720F0A21BB30BE40BF50B661F63
:1017A000771F881F991F1A9469F760957095809527
:1017B00090959B01AC01BD01CF010895EE0FFF1F75
:0C17C0000590F491E02D0994F894FFCFFF
:1017CC000000BD02800000010203040506070809A1
:1017DC000A0B0C0D0E0F564D4450565F317C315F89
:1017EC00564D4450560D0A00564D4450455F31003D
:1017FC007C005F564D4450450D0A00656E6372794E
:10180C00707465643A006465637279707465643AE7
:10181C0000303132333435363738393031323334B5
:10182C003500564D4450435F005F564D4450430DB8
:10183C000A004572726F723A20417474656D70744F
:10184C0020746F20736574206120726561642D6F44
:10185C006E6C79207661726961626C65206F7220A2
:10186C00646174612074797065206E6F7420737577
:10187C0070706F727465640D0A00000000007C09C2
:10188C00F80AFE08170909095A096E616E00696E9B
:08189C0066006F7666002E0065
:00000001FF
